Archive member included because of file (symbol)

d:/lpcxpresso/lpcxpresso/tools/bin/../lib/gcc/arm-none-eabi/4.8.4/armv7-m\libcr_eabihelpers.a(division_64.o)
                              ./lpc175x_6x_cmsis_driver_library/Drivers/source/lpc17xx_timer.o (__aeabi_uldivmod)
d:/lpcxpresso/lpcxpresso/tools/bin/../lib/gcc/arm-none-eabi/4.8.4/armv7-m\libcr_eabihelpers.a(division_idiv0.o)
                              d:/lpcxpresso/lpcxpresso/tools/bin/../lib/gcc/arm-none-eabi/4.8.4/armv7-m\libcr_eabihelpers.a(division_64.o) (__aeabi_idiv0)
d:/lpcxpresso/lpcxpresso/tools/bin/../lib/gcc/arm-none-eabi/4.8.4/armv7-m\libcr_eabihelpers.a(float.o)
                              ./lpc175x_6x_cmsis_driver_library/Drivers/source/lpc17xx_systick.o (__aeabi_ui2f)

Allocating common symbols
Common symbol       size              file

_db_dec             0x4               ./lpc175x_6x_cmsis_driver_library/Drivers/source/debug_frmwrk.o
_db_dec_32          0x4               ./lpc175x_6x_cmsis_driver_library/Drivers/source/debug_frmwrk.o
_db_hex_32          0x4               ./lpc175x_6x_cmsis_driver_library/Drivers/source/debug_frmwrk.o
_db_dec_16          0x4               ./lpc175x_6x_cmsis_driver_library/Drivers/source/debug_frmwrk.o
_db_msg             0x4               ./lpc175x_6x_cmsis_driver_library/Drivers/source/debug_frmwrk.o
_db_get_char        0x4               ./lpc175x_6x_cmsis_driver_library/Drivers/source/debug_frmwrk.o
_db_msg_            0x4               ./lpc175x_6x_cmsis_driver_library/Drivers/source/debug_frmwrk.o
_db_char            0x4               ./lpc175x_6x_cmsis_driver_library/Drivers/source/debug_frmwrk.o
_db_hex             0x4               ./lpc175x_6x_cmsis_driver_library/Drivers/source/debug_frmwrk.o
_db_hex_16          0x4               ./lpc175x_6x_cmsis_driver_library/Drivers/source/debug_frmwrk.o
